:100000000C9441000C9469000C9469000C946900F4
:100010000C9469000C9469000C9469000C946900BC
:100020000C9469000C9469000C9469000C946900AC
:100030000C9469000C9469000C9469000C9469009C
:100040000C9469000C9469000C9485040C940E07C0
:100050000C944D060C9469000C9469000C94690092
:100060000C9469000C9469006B0000006C000000A7
:100070007A000000C6010000C8010000D1010000A4
:10008000990211241FBECFEFD8E0DEBFCDBF11E033
:10009000A0E0B1E0E2EFF0E102C005900D92A432E1
:1000A000B107D9F721E0A4E2B1E001C01D92A63565
:1000B000B207E1F710E0C1E4D0E004C02197FE01EF
:1000C0000E944907C034D107C9F70E943C020C9432
:1000D00077080C94000008954430510508F4089501
:1000E00021E030E0FC0134872387BC01655F7F4F4E
:1000F0000C948F024430510508F4089522E030E05A
:10010000FC0134872387BC01655F7F4F0C948F020D
:100110000F931F93FB01A081B1812B2F3A2F233026
:10012000310530F5EB2FFA2FEE0FFF1FEE0FFF1FFB
:10013000E859FF4F0591159125913491F80120FF61
:1001400010C0F901F595E7958E0F9F1FDC01ED9129
:10015000FC91E00FF11F0190F081E02D1F910F91B4
:10016000099435952795820F931F1F910F9109943C
:100170001F910F910895EF92FF920F931F93CF93CA
:10018000DF93EC0102C00E940B028E819F810E94CE
:100190007C050097C1F78E819F810E94B504FC0108
:1001A000E058FF4F00811181081B190B39F4DF91D2
:1001B000CF911F910F91FF90EF9008957C0106C0A1
:1001C000CF010E94CD020150110989F3F70161911D
:1001D0007F01E885F985808191810E94EC02E885A4
:1001E000F9850190F081E02D8585882361F34281B6
:1001F00053814430510520F360857185CE010E9402
:100200008800E885F9850190F081E02DD9CF0F9322
:100210001F93CF93DF9380912401882349F080912D
:100220002C0190912D01DF91CF911F910F91089595
:100230008DE090E00E940702EC010E946F028AE0CC
:1002400091E0998388830E94E0039F838E8383E0FB
:1002500090E00E9407028C010E94C0031987088762
:10026000D0932D01C0932C0181E080932401CE0115
:10027000DF91CF911F910F910895EF92FF920F930D
:100280001F93CF93DF93EC017B018EE290E00E94FD
:1002900007028C0164E270E00E949E0201151105C4
:1002A00049F1D8011896ED91FC911997108281E0DF
:1002B000818313821282CF01049620E2FC01119205
:1002C0002A95E9F7B7010E947008C8010E94AC02A4
:1002D00002C00E940B028E819F810E947C050097C4
:1002E000C1F74EE250E0B8018E819F810E94D20496
:1002F000892B39F0DF91CF911F910F91FF90EF90F3
:100300000895C801DF91CF911F910F91FF90EF9059
:100310000C940B020F931F93CF93DF93EC018EE0AD
:1003200090E00E9407028C0164E070E00E949E024F
:1003300001151105F9F0D8011896ED91FC91199766
:10034000108282E0818313821282C8010E94AC0273
:1003500002C00E940B028E819F810E947C05009743
:10036000C1F74EE050E0B8018E819F810E94D20417
:10037000892B29F0DF91CF911F910F910895C8012A
:10038000DF91CF911F910F910C940B020895089566
:1003900021E0FC0120876CE071E0868197810C945C
:1003A0003D0121E0FC012087868197810C948A0120
:1003B0000F931F93DB01ED91FC91E330F10520F5E4
:1003C000EE0FFF1FEE0FFF1FEC58FF4F0591159129
:1003D00025913491F80120FF10C0A901559547954A
:1003E000840F951FFC0140815181040F151FD80116
:1003F000ED91FC911F910F91099435952795820FEE
:10040000931F1F910F9109941F910F9108950C94C0
:100410004F070C944F070C94E7070C94E707CF9312
:10042000DF9380912E01882339F0809136019091DD
:100430003701DF91CF91089589E090E00E944F0746
:10044000EC010E946F028BE191E0998388830E9406
:1004500007019F838E83AE0168ED71E00E948902DF
:100460007894D0933701C093360181E080932E01B8
:10047000CE01DF91CF9108952FEF89E698E12150C9
:1004800080409040E1F700C000000E940F020E94EF
:100490004E0280E090E00895089508958091400113
:1004A0009091410121E088339207E1F3C8E3D1E064
:1004B00003C0C817D907B1F3A991B991ED91FC9187
:1004C00011970190F081E02D22E0EC34F20789F3DE
:1004D000CD0109958091400190914101EACFCF93E0
:1004E000DF93FC0181E291E0918380831382128289
:1004F0008DE492E095838483C8E3D1E0A885B98533
:10050000CD01029699878887ED93FC93DF91CF9177
:100510000895FC0175836483538342830895DC014D
:100520001496ED91FC91159712968D919C911397CD
:100530000994E8E3F1E0F187E0870895FC0181E5A3
:10054000808380E5818384E3828381E38383748372
:100550006583168217820895DC011896ED91FC914F
:10056000199715964C91159714965C9114974E0F08
:100570005F1F20E030E0E417F50749F09191290F63
:10058000311D4E175F07D1F7319521953109169628
:100590003C93169717962C930895CF93DF93EC0115
:1005A000198218821B821A821D821C821F821E825F
:1005B0001C861B8688859985009721F019861886E8
:1005C0000E940D021D861E861F86188A198A1B8AA4
:1005D0001A8ADF91CF910895CF93DF93EC018E8536
:1005E0009F85A889B989BA2FA92F982F8827862B8C
:1005F0008E879F87A88BB98B81339443A045B145E3
:1006000009F469C0888199818230910509F445C057
:100610008330910529F0019729F1DF91CF91089559
:10062000EB85FC85CF0101969C878B8760838C814D
:100630009D81860F911D9D838C832A893B89215042
:1006400031093B8B2A8B232B41F791958195910999
:100650009D838C832E813F8182179307B9F581E0BA
:100660008D8734C080E090E09A81862B9B838A83BB
:100670002A893B89215031093B8B2A8B232B69F630
:100680008134910508F062C082E090E0998388830C
:100690009B8B8A8BDF91CF91089580E090E09E81C3
:1006A000862B9F838E832A893B89215031093B8B7E
:1006B0002A8B232B09F0B1CF2A813B8121153105EB
:1006C00051F52C813D818217930749F219821882D6
:1006D000DF91CF910895198218821B821A821D82A0
:1006E0001C821F821E821C861B8688859985009726
:1006F00021F0198618860E940D021D861E861F860F
:10070000188A198A81E090E09983888382E090E0DA
:100710009B8B8A8B82CFC9010E9409029C878B87A1
:10072000288539858217930741F099878887211595
:10073000310519F0C9010E940D0283E090E0998310
:1007400088838A819B819B8B8A8B67CF19821882D1
:100750001B821A821D821C821F821E821C861B869F
:1007600088859985009721F0198618860E940D02C8
:100770001D861E861F86188A198A1B8A1A8A4DCFE3
:10078000CF93DF93EC0184E190E00E940702FC012B
:1007900011821082138212821582148217821682AD
:1007A0001186108614861386158616861786108A7B
:1007B000118A138A128A99838883DF91CF910895D1
:1007C000CF93DF9380914201882339F080914A01D1
:1007D00090914B01DF91CF9108958DE291E00E94BD
:1007E0000702FC01AC014C5F5F4FDC01AC57BF4F0F
:1007F00011965C934E939C012A573F4FAE57BF4FC3
:1008000011963C932E93129611961C921E9213965B
:100810001C921E921297EC01C45FDE4F198218825F
:100820001B821A820A2E1B2E19961C920E921124DC
:1008300018970A2E1B2E1B961C920E9211241A97A3
:1008400081E01C968C931C971D961C921D971E96FA
:1008500011961C921E9213961C921E9212972E961F
:10086000198218821B821A820A2E1B2E19961C923C
:100870000E92112418970A2E1B2E1B961C920E9274
:1008800011241A971C968C931C971D961C921D97E9
:100890001E9611961C921E9213961C921E921297EF
:1008A000149611961C921E92129611961C921E92EC
:1008B00012968C93F0935101E093500150934F01A5
:1008C00040934E0130934D0120934C011092C00093
:1008D00098ED9093C10096E09093C20040E056E9F5
:1008E00060E070E040835183628373831092C5009F
:1008F0009CE09093C400F0934B01E0934A018093F5
:100900004201CF01DF91CF9108951F920F920FB650
:100910000F9211242F933F938F93AF93BF93EF9335
:10092000FF938091C00087FF14C08091C600E091C2
:100930004E01F0914F01E058FF4FA081B1819D0120
:100940002F5F3F4F318320838C938091C00087FDC0
:10095000ECCFFF91EF91BF91AF918F913F912F918C
:100960000F900FBE0F901F90189580914C019091A1
:100970004D01FC01E058FF4F9183808340914E016F
:1009800050914F012FB7F89490934F0180934E01EF
:1009900050934D0140934C012FBF80914C01909199
:1009A0004D010895AF92BF92CF92DF92EF92FF92E6
:1009B0000F931F93CF93DF933FB7F8942091C1001B
:1009C0002F7B2093C1003FBFFC01EB5EFE4F2081D7
:1009D00021113EC0DC01A85FBE4F1A96ED91FC913B
:1009E0001B97608371835383428334961B96FC93D9
:1009F000EE931A97AC01405F5E4FE417F50759F18B
:100A00001C961C921C9718962D913C9119972E17A5
:100A10003F0751F15C01CCEDAC1ACEEFBC0AE50109
:100A200008811981012B29F1CB013FB7F89420915E
:100A3000C10020642093C1003FBFDF91CF911F917F
:100A40000F91FF90EF90DF90CF90BF90AF900895FF
:100A500080E090E0EACF0A2E1B2E1B961C920E928D
:100A600011241A97FD01CCCFC1E01D96CC931D97A0
:100A7000D1CFE901C990D990E990F9909E01E501A3
:100A8000C882D982EA82FB8219963C932E931897EA
:100A90004217530721F11D961C921D972E173F07F1
:100AA00039F1FC01E85DFE4FD5012D913C91318378
:100AB00020833296DC01AA5DBE4F2D913C9131839B
:100AC0002083845D9E4FEC0118829FB7F89480913B
:100AD000C10080628093C1009FBFCB01A6CF0A2EC8
:100AE0001B2E19961C920E92112418979D01D3CF9C
:100AF00021E01C962C93D5CFCF92DF92EF92FF92FC
:100B0000CF93DF939C019FB7F8948091C1008F7BB6
:100B10008093C1009FBFF901EE5DFE4F808181117E
:100B20005DC0D901A25EBE4FED91FC91119780810D
:100B30009181AF014C5F5F4FF901EA5EFE4F518733
:100B400040874A175B0709F453C015866285738591
:100B50006417750709F456C0B901645D7E4FDB0167
:100B60004C91442361F1E901CC5DDE4F488159810C
:100B7000452B29F1F901EA5EFE4FC880D980EA8051
:100B8000FB80A285B385CD92DD92ED92FD92B38775
:100B9000A287A901425E5E4FA417B50729F114860A
:100BA000408551854A175B07E1F0198218821B8244
:100BB0001A82F901EC5EFE4F4081442331F13FB7C8
:100BC000F8942091C10020642093C1003FBFDF91C1
:100BD000CF91FF90EF90DF90CF90089580E090E06C
:100BE000BBCF41E04587E1CFF387E287DF01D7CF75
:100BF000F187E087AF0115866285738564177507F5
:100C000009F0AACF41E04487A7CFA901405F5E4F1A
:100C1000DA01ED91FC911197C190D190E190F190A2
:100C2000C882D982EA82FB8218971996FC93EE93C8
:100C30001897E417F50721F11D961C921D971A9637
:100C40004D915C911B974E175F0719F1F901E85D13
:100C5000FE4F488159815183408332962A5D3E4F31
:100C6000D9012D913C9131832083FB0110823FB744
:100C7000F8942091C10020622093C1003FBF9FCF14
:100C80000A2E1B2E19961C920E9211241897FD0104
:100C9000D3CF41E01C964C93D9CF1F920F920FB641
:100CA0000F921124CF92DF92EF92FF922F933F93F6
:100CB0004F935F936F937F938F939F93AF93BF9364
:100CC000CF93DF93EF93FF93809150019091510167
:100CD0009C01245D3E4F41E0D9014C93FC01ED5D48
:100CE000FE4F408141112EC05697EC01CC5DDE4F86
:100CF000488159816A817B811A96ED91FC911B97FD
:100D000041935193619371931B96FC93EE931A97C1
:100D1000AC01425E5E4FE417F50759F11C961C9238
:100D20001C9718964D915C9119974E175F0751F1DA
:100D3000198218821B821A82FC01EC5EFE4F4081F0
:100D4000442321F1FF91EF91DF91CF91BF91AF91BA
:100D50009F918F917F916F915F914F913F912F91D3
:100D6000FF90EF90DF90CF900F900FBE0F901F90ED
:100D700018950A2E1B2E1B961C920E9211241A9760
:100D8000FD01CCCF41E01D964C93D2CFAC01405F2A
:100D90005E4FDA01ED91FC911197C190D190E190F5
:100DA000F190C882D982EA82FB8218971996FC9347
:100DB000EE931897E417F50741F11D961C921D97C5
:100DC0001A964D915C911B974E175F07D1F0FC016D
:100DD000E85DFE4F488159815183408332968A5D98
:100DE0009E4FDC018D919C9191838083F90110824B
:100DF0009FB7F8948091C10080628093C1009FBF2B
:100E0000A1CF41E01C964C93E2CF0A2E1B2E1996DF
:100E10001C920E9211241897FD01CFCF1F920F92B2
:100E20000FB60F9211248F939F93AF93BF93CF93DD
:100E3000DF93EF93FF93E0915001F0915101EF01A7
:100E4000C85DDE4FA881B981CD0101969983888361
:100E50008C918093C600E65DFE4F80819181019761
:100E600091838083892B41F49FB7F8948091C100CE
:100E70008F7D8093C1009FBFFF91EF91DF91CF9154
:100E8000BF91AF919F918F910F900FBE0F901F90C8
:100E90001895EE0FFF1F0590F491E02D09940F9324
:100EA0001F93CF93DF938230910510F482E090E09E
:100EB000E0915401F091550120E030E0A0E0B0E075
:100EC000309719F1408151810281138148175907E8
:100ED000C8F08417950769F4109731F012960C93B7
:100EE000129713961C9327C0009354011093550139
:100EF00022C02115310519F04217530718F49A0141
:100F0000BD01EF01DF01F801DBCF21153105F9F05B
:100F1000281B390B2430310580F48A819B816115AF
:100F2000710521F0FB019383828304C090935501E6
:100F300080935401FE01329644C0FE01E20FF31F7C
:100F40008193919322503109398328833AC02091AB
:100F5000520130915301232B41F420910201309131
:100F600003013093530120935201209100013091ED
:100F700001012115310541F42DB73EB7409104011F
:100F800050910501241B350BE0915201F091530162
:100F9000E217F307A0F42E1B3F0B2817390778F050
:100FA000AC014E5F5F4F2417350748F04E0F5F1FAF
:100FB00050935301409352018193919302C0E0E01A
:100FC000F0E0CF01DF91CF911F910F910895CF9362
:100FD000DF93009709F481C0FC01329713821282DB
:100FE000A0915401B0915501109781F42081318175
:100FF000820F931F20915201309153012817390716
:1010000051F5F0935301E093520167C0ED0120E0E8
:1010100030E0CE17DF0740F44A815B819E01411525
:101020005105F1F0EA01F5CFD383C28340815181AC
:10103000840F951FC817D90759F488819981840FA7
:10104000951F0296918380838A819B8193838283FB
:101050002115310529F4F0935501E09354013DC069
:10106000E901FB83EA8349915991C40FD51FEC171D
:10107000FD0761F480819181840F951F0296E9013B
:1010800099838883828193819B838A83E0E0F0E067
:1010900012968D919C911397009719F0FD01DC0138
:1010A000F7CF8D919C9111979D012E5F3F4F820F3D
:1010B000931F20915201309153012817390769F489
:1010C000309729F4109255011092540102C01382F6
:1010D0001282B0935301A0935201DF91CF910895F2
:1010E000FB01DC0101900D920020E1F70895F894D6
:0210F000FFCF30
:1010F20000005601200000000000BB004441532DB7
:101102005048593331350000000000C7010000008B
:04111200004C02008B
:00000001FF
