:100000000C9437000C945F000C945F000C945F001C
:100010000C945F000C945F000C945F000C945F00E4
:100020000C945F000C945F000C945F000C945F00D4
:100030000C945F000C945F000C94F6050C945F0028
:100040000C945F000C945F000C945F000C945F00B4
:100050000C945F006100000062000000700000006E
:10006000BC010000BE010000C70100008F02112486
:100070001FBECFE5D8E0DEBFCDBF10E0A0E6B0E008
:10008000E8EBFEE002C005900D92A438B107D9F765
:1000900020E0A4E8B0E001C01D92A63BB207E1F762
:1000A00010E0C7E3D0E004C02197FE010E942C06B7
:1000B000C633D107C9F70E9432020C945A070C9438
:1000C000000008954430510508F4089521E030E01F
:1000D000FC0134872387BC01655F7F4F0C94850248
:1000E0004430510508F4089522E030E0FC013487E3
:1000F0002387BC01655F7F4F0C9485020F931F938C
:10010000FB01A081B1812B2F3A2F2330310530F52F
:10011000EB2FFA2FEE0FFF1FEE0FFF1FEC5AFF4FD2
:100120000591159125913491F80120FF10C0F90136
:10013000F595E7958E0F9F1FDC01ED91FC91E00F87
:10014000F11F0190F081E02D1F910F9109943595D9
:100150002795820F931F1F910F9109941F910F9163
:100160000895EF92FF920F931F93CF93DF93EC01CB
:1001700002C00E9401028E819F810E94310500977A
:10018000C1F78E819F810E947604FC01E058FF4FE9
:1001900000811181081B190B39F4DF91CF911F9158
:1001A0000F91FF90EF9008957C0106C0CF010E944F
:1001B000C3020150110989F3F70161917F01E885BC
:1001C000F985808191810E94E202E885F98501909C
:1001D000F081E02D8585882361F34281538144308D
:1001E000510520F360857185CE010E947E00E8856F
:1001F000F9850190F081E02DD9CF0F931F93CF9314
:10020000DF9380918400882349F080918C00909145
:100210008D00DF91CF911F910F9108958DE090E0B7
:100220000E94FD01EC010E9465028AE690E099833C
:1002300088830E94D6039F838E8383E090E00E9490
:10024000FD018C010E94B60319870887D0938D00A9
:10025000C0938C0081E080938400CE01DF91CF9128
:100260001F910F910895EF92FF920F931F93CF93D9
:10027000DF93EC017B018EE290E00E94FD018C0196
:1002800064E270E00E9494020115110549F1D80161
:100290001896ED91FC911997108281E08183138269
:1002A0001282CF01049620E2FC0111922A95E9F70F
:1002B000B7010E945307C8010E94A20202C00E9417
:1002C00001028E819F810E9431050097C1F74EE2A5
:1002D00050E0B8018E819F810E949304892B39F0F0
:1002E000DF91CF911F910F91FF90EF900895C8017A
:1002F000DF91CF911F910F91FF90EF900C9401022D
:100300000F931F93CF93DF93EC018EE090E00E9458
:10031000FD018C0164E070E00E949402011511055A
:10032000F9F0D8011896ED91FC911997108282E0AE
:10033000818313821282C8010E94A20202C00E941D
:1003400001028E819F810E9431050097C1F74EE026
:1003500050E0B8018E819F810E949304892B29F07F
:10036000DF91CF911F910F910895C801DF91CF9137
:100370001F910F910C9401020895089521E0FC0152
:1003800020876CE670E0868197810C94330121E030
:10039000FC012087868197810C9480010F931F9325
:1003A000DB01ED91FC91E330F10520F5EE0FFF1F2D
:1003B000EE0FFF1FE05AFF4F0591159125913491E3
:1003C000F80120FF10C0A90155954795840F951F8E
:1003D000FC0140815181040F151FD801ED91FC9162
:1003E0001F910F91099435952795820F931F1F91A7
:1003F0000F9109941F910F9108950C9432060C945B
:1004000032060C94CA060C94CA06CF93DF938091EF
:100410008E00882339F08091960090919700DF91AB
:10042000CF91089589E090E00E943206EC010E948D
:1004300065028BE790E0998388830E94FD009F838B
:100440008E83AE016EEC71E00E947F027894D093AF
:100450009700C093960081E080938E00CE01DF91DB
:10046000CF9108952FEF89E698E121508040904088
:10047000E1F700C000000E9405020E94440280E0F3
:1004800090E00895089508958091A0009091A100B2
:1004900020E088399207E1F3C8E9D0E003C0C8172B
:1004A000D907B1F3A991B991ED91FC911197019000
:1004B000F081E02D22E0E234F20789F3CD010995C5
:1004C0008091A0009091A100EACFCF93DF93FC012F
:1004D00081E890E0918380831382128283E492E02A
:1004E00095838483C8E9D0E0A885B985CD010296BB
:1004F00099878887ED93FC93DF91CF910895FC0154
:1005000075836483538342830895DC011496ED91CF
:10051000FC91159712968D919C9113970994E8E997
:10052000F0E0F187E0870895FC0181E5808380E5B4
:10053000818384E3828381E383837483658316826A
:1005400017820895DC011896ED91FC911997159684
:100550004C91159714965C9114974E0F5F1F20E0F5
:1005600030E0E417F50749F09191290F311D4E173E
:100570005F07D1F731952195310916963C9316976F
:1005800017962C930895CF93DF93EC01198218826C
:100590001B821A821D821C821F821E821C861B8661
:1005A00088859985009721F0198618860E94030294
:1005B0001D861E861F86188A198A1B8A1A8ADF9151
:1005C000CF910895CF93DF93EC018E859F85A88905
:1005D000B989BA2FA92F982F8827862B8E879F87B6
:1005E000A88BB98B81339443A045B14509F469C008
:1005F000888199818230910509F445C08330910545
:1006000029F0019729F1DF91CF910895EB85FC85C1
:10061000CF0101969C878B8760838C819D81860F9B
:10062000911D9D838C832A893B89215031093B8B05
:100630002A8B232B41F79195819591099D838C837A
:100640002E813F8182179307B9F581E08D8734C0F1
:1006500080E090E09A81862B9B838A832A893B895C
:10066000215031093B8B2A8B232B69F6813491056C
:1006700008F062C082E090E0998388839B8B8A8B2C
:10068000DF91CF91089580E090E09E81862B9F833B
:100690008E832A893B89215031093B8B2A8B232B5E
:1006A00009F0B1CF2A813B812115310551F52C810B
:1006B0003D818217930749F219821882DF91CF9109
:1006C0000895198218821B821A821D821C821F8241
:1006D0001E821C861B8688859985009721F01986C5
:1006E00018860E9403021D861E861F86188A198A94
:1006F00081E090E09983888382E090E09B8B8A8BF5
:1007000082CFC9010E94FF019C878B87288539858C
:100710008217930741F0998788872115310519F0D1
:10072000C9010E94030283E090E0998388838A8153
:100730009B819B8B8A8B67CF198218821B821A82BE
:100740001D821C821F821E821C861B8688859985BD
:10075000009721F0198618860E9403021D861E86C6
:100760001F86188A198A1B8A1A8A4DCFCF93DF9366
:10077000EC0184E190E00E94FD01FC0111821082F5
:1007800013821282158214821782168211861086B5
:1007900014861386158616861786108A118A138A80
:1007A000128A99838883DF91CF910895CF93DF9345
:1007B0008091A200882339F08091AA009091AB002B
:1007C000DF91CF9108958DE291E00E94FD01FC013F
:1007D000AC014C5F5F4FDC01AC57BF4F11965C938F
:1007E0004E939C012A573F4FAE57BF4F11963C93F3
:1007F0002E93129611961C921E9213961C921E9284
:100800001297EC01C45FDE4F198218821B821A8294
:100810000A2E1B2E19961C920E92112418970A2E3E
:100820001B2E1B961C920E9211241A9781E01C9687
:100830008C931C971D961C921D971E9611961C92C8
:100840001E9213961C921E9212972E96198218824F
:100850001B821A820A2E1B2E19961C920E921124AC
:1008600018970A2E1B2E1B961C920E9211241A9773
:100870001C968C931C971D961C921D971E96119684
:100880001C921E9213961C921E9212971496119609
:100890001C921E92129611961C921E9212968C9386
:1008A000F093B100E093B0005093AF004093AE00DE
:1008B0003093AD002093AC001BB898ED9AB996E840
:1008C00090BD40E056E960E070E040835183628370
:1008D000738310BC9CE099B9F093AB00E093AA003D
:1008E0008093A200CF01DF91CF9108958091AC0059
:1008F0009091AD00FC01E058FF4F918380834091BF
:10090000AE005091AF002FB7F8949093AF00809352
:10091000AE005093AD004093AC002FBF8091AC006F
:100920009091AD000895AF92BF92CF92DF92EF9277
:10093000FF920F931F93CF93DF932FB7F89456989E
:100940002FBFFC01EB5EFE4F208121113AC0DC017C
:10095000A85FBE4F1A96ED91FC911B97608371833F
:100960005383428334961B96FC93EE931A97AC0103
:10097000405F5E4FE417F50739F11C961C921C97F7
:1009800018962D913C9119972E173F0731F15C0174
:10099000CCEDAC1ACEEFBC0AE50108811981012B20
:1009A00009F1CB012FB7F894569A2FBFDF91CF9161
:1009B0001F910F91FF90EF90DF90CF90BF90AF907D
:1009C000089580E090E0EECF0A2E1B2E1B961C921D
:1009D0000E9211241A97FD01D0CFC1E01D96CC9341
:1009E0001D97D5CFE901C990D990E990F9909E0162
:1009F000E501C882D982EA82FB8219963C932E9344
:100A000018974217530701F11D961C921D972E1738
:100A10003F0719F1FC01E85DFE4FD5012D913C9196
:100A2000318320833296DC01AA5DBE4F2D913C912B
:100A300031832083845D9E4FEC0118828FB7F89438
:100A4000559A8FBFCB01AECF0A2E1B2E19961C9242
:100A50000E92112418979D01D7CF21E01C962C935C
:100A6000D9CFCF92DF92EF92FF92CF93DF939C0189
:100A70008FB7F89456988FBFF901EE5DFE4F8081D5
:100A8000811159C0D901A25EBE4FED91FC91119721
:100A900080819181AF014C5F5F4FF901EA5EFE4FAB
:100AA000518740874A175B0709F44FC01586628556
:100AB00073856417750709F452C0B901645D7E4FF0
:100AC000DB014C91442361F1E901CC5DDE4F4881AB
:100AD0005981452B29F1F901EA5EFE4FC880D98082
:100AE000EA80FB80A285B385CD92DD92ED92FD92E6
:100AF000B387A287A901425E5E4FA417B50709F12B
:100B00001486408551854A175B07C1F01982188207
:100B10001B821A82F901EC5EFE4F4081442311F1E1
:100B20002FB7F894569A2FBFDF91CF91FF90EF9097
:100B3000DF90CF90089580E090E0BFCF41E04587FF
:100B4000E5CFF387E287DF01DBCFF187E087AF01F5
:100B50001586628573856417750709F0AECF41E08D
:100B60004487ABCFA901405F5E4FDA01ED91FC9164
:100B70001197C190D190E190F190C882D982EA8218
:100B8000FB8218971996FC93EE931897E417F507D4
:100B900001F11D961C921D971A964D915C911B9721
:100BA0004E175F07F9F0F901E85DFE4F4881598162
:100BB0005183408332962A5D3E4FD9012D913C915D
:100BC00031832083FB0110822FB7F894559A2FBFF1
:100BD000A7CF0A2E1B2E19961C920E92112418973D
:100BE000FD01D7CF41E01C964C93DDCF1F920F92B1
:100BF0000FB60F9211248F939F93AF93BF93CF9310
:100C0000DF93EF93FF93E091B000F091B100EF011B
:100C1000C85DDE4FA881B981CD0101969983888393
:100C20008C918CB9E65DFE4F808191810197918313
:100C30008083892B21F48FB7F89455988FBFFF914B
:100C4000EF91DF91CF91BF91AF919F918F910F90D5
:100C50000FBE0F901F901895EE0FFF1F0590F49197
:100C6000E02D09940F931F93CF93DF93823091056A
:100C700010F482E090E0E091B400F091B50020E043
:100C800030E0A0E0B0E0309719F14081518102815D
:100C9000138148175907C8F08417950769F410970E
:100CA00031F012960C93129713961C9327C0009361
:100CB000B4001093B50022C02115310519F0421778
:100CC000530718F49A01BD01EF01DF01F801DBCFF2
:100CD00021153105F9F0281B390B2430310580F43A
:100CE0008A819B816115710521F0FB0193838283C9
:100CF00004C09093B5008093B400FE01329644C0C6
:100D0000FE01E20FF31F8193919322503109398341
:100D100028833AC02091B2003091B300232B41F4D4
:100D200020916200309163003093B3002093B200B1
:100D300020916000309161002115310541F42DB7FB
:100D40003EB74091640050916500241B350BE09143
:100D5000B200F091B300E217F307A0F42E1B3F0B93
:100D60002817390778F0AC014E5F5F4F241735071D
:100D700048F04E0F5F1F5093B3004093B200819331
:100D8000919302C0E0E0F0E0CF01DF91CF911F919D
:100D90000F910895CF93DF93009709F481C0FC0170
:100DA000329713821282A091B400B091B5001097CF
:100DB00081F420813181820F931F2091B200309104
:100DC000B3002817390751F5F093B300E093B20050
:100DD00067C0ED0120E030E0CE17DF0740F44A8124
:100DE0005B819E0141155105F1F0EA01F5CFD383F6
:100DF000C28340815181840F951FC817D90759F4C8
:100E000088819981840F951F0296918380838A81BE
:100E10009B81938382832115310529F4F093B500DA
:100E2000E093B4003DC0E901FB83EA834991599105
:100E3000C40FD51FEC17FD0761F480819181840FE9
:100E4000951F0296E90199838883828193819B8310
:100E50008A83E0E0F0E012968D919C9113970097C1
:100E600019F0FD01DC01F7CF8D919C9111979D0147
:100E70002E5F3F4F820F931F2091B2003091B3003D
:100E80002817390769F4309729F41092B5001092A9
:100E9000B40002C013821282B093B300A093B200D8
:100EA000DF91CF910895FB01DC0101900D920020AC
:080EB000E1F70895F894FFCF6B
:100EB8000000B600200000000000B1004441532D9E
:100EC8005048593331350000000000BD01000000D2
:040ED80000420200D2
:00000001FF
